{
  "contractName": "ballot",
  "abi": [
    {
      "inputs": [
        {
          "internalType": "bytes32[]",
          "name": "proposalNames",
          "type": "bytes32[]"
        }
      ],
      "payable": false,
      "stateMutability": "nonpayable",
      "type": "constructor"
    },
    {
      "constant": true,
      "inputs": [],
      "name": "candidate",
      "outputs": [
        {
          "internalType": "string",
          "name": "",
          "type": "string"
        }
      ],
      "payable": false,
      "stateMutability": "view",
      "type": "function"
    },
    {
      "constant": true,
      "inputs": [
        {
          "internalType": "uint256",
          "name": "",
          "type": "uint256"
        }
      ],
      "name": "proposals",
      "outputs": [
        {
          "internalType": "bytes32",
          "name": "name",
          "type": "bytes32"
        },
        {
          "internalType": "uint256",
          "name": "voteCount",
          "type": "uint256"
        }
      ],
      "payable": false,
      "stateMutability": "view",
      "type": "function"
    },
    {
      "constant": true,
      "inputs": [
        {
          "internalType": "address",
          "name": "",
          "type": "address"
        }
      ],
      "name": "voters",
      "outputs": [
        {
          "internalType": "bool",
          "name": "voted",
          "type": "bool"
        },
        {
          "internalType": "address",
          "name": "delegate",
          "type": "address"
        },
        {
          "internalType": "uint256",
          "name": "vote",
          "type": "uint256"
        }
      ],
      "payable": false,
      "stateMutability": "view",
      "type": "function"
    },
    {
      "constant": false,
      "inputs": [
        {
          "internalType": "uint256",
          "name": "proposal",
          "type": "uint256"
        }
      ],
      "name": "vote",
      "outputs": [],
      "payable": false,
      "stateMutability": "nonpayable",
      "type": "function"
    },
    {
      "constant": true,
      "inputs": [],
      "name": "winningProposal",
      "outputs": [
        {
          "internalType": "uint256",
          "name": "winningProposal_",
          "type": "uint256"
        }
      ],
      "payable": false,
      "stateMutability": "view",
      "type": "function"
    },
    {
      "constant": true,
      "inputs": [],
      "name": "winnerName",
      "outputs": [
        {
          "internalType": "bytes32",
          "name": "winnerName_",
          "type": "bytes32"
        }
      ],
      "payable": false,
      "stateMutability": "view",
      "type": "function"
    },
    {
      "constant": false,
      "inputs": [],
      "name": "Election",
      "outputs": [],
      "payable": false,
      "stateMutability": "nonpayable",
      "type": "function"
    }
  ],
  "bytecode": "0x608060405234801561001057600080fd5b506040516107cd3803806107cd8339818101604052602081101561003357600080fd5b810190808051604051939291908464010000000082111561005357600080fd5b8382019150602082018581111561006957600080fd5b825186602082028301116401000000008211171561008657600080fd5b8083526020830192505050908051906020019060200280838360005b838110156100bd5780820151818401526020810190506100a2565b5050505090500160405250505060008090505b815181101561015357600260405180604001604052808484815181106100f257fe5b60200260200101518152602001600081525090806001815401808255809150509060018203906000526020600020906002020160009091929091909150600082015181600001556020820151816001015550505080806001019150506100d0565b5050610669806101646000396000f3fe608060405234801561001057600080fd5b506004361061007d5760003560e01c8063609ff1bd1161005b578063609ff1bd146101035780636c8381f814610121578063a3ec138d146101a4578063e2ba53f01461023a5761007d565b80630121b93f14610082578063013cf08b146100b05780631d6c263c146100f9575b600080fd5b6100ae6004803603602081101561009857600080fd5b8101908080359060200190929190505050610258565b005b6100dc600480360360208110156100c657600080fd5b8101908080359060200190929190505050610377565b604051808381526020018281526020019250505060405180910390f35b6101016103a8565b005b61010b6103f6565b6040518082815260200191505060405180910390f35b61012961046d565b6040518080602001828103825283818151815260200191508051906020019080838360005b8381101561016957808201518184015260208101905061014e565b50505050905090810190601f1680156101965780820380516001836020036101000a031916815260200191505b509250505060405180910390f35b6101e6600480360360208110156101ba57600080fd5b81019080803573ffffffffffffffffffffffffffffffffffffffff16906020019092919050505061050b565b60405180841515151581526020018373ffffffffffffffffffffffffffffffffffffffff1673ffffffffffffffffffffffffffffffffffffffff168152602001828152602001935050505060405180910390f35b610242610562565b6040518082815260200191505060405180910390f35b6000600160003373ffffffffffffffffffffffffffffffffffffffff1673ffffffffffffffffffffffffffffffffffffffff16815260200190815260200160002090508060000160009054906101000a900460ff1615610320576040517f08c379a000000000000000000000000000000000000000000000000000000000815260040180806020018281038252600e8152602001807f416c726561647920766f7465642e00000000000000000000000000000000000081525060200191505060405180910390fd5b60018160000160006101000a81548160ff02191690831515021790555081816001018190555060016002838154811061035557fe5b9060005260206000209060020201600101600082825401925050819055505050565b6002818154811061038457fe5b90600052602060002090600202016000915090508060000154908060010154905082565b6040518060400160405280600b81526020017f43616e6469646174652031000000000000000000000000000000000000000000815250600090805190602001906103f392919061058f565b50565b6000806000905060008090505b60028054905081101561046857816002828154811061041e57fe5b906000526020600020906002020160010154111561045b576002818154811061044357fe5b90600052602060002090600202016001015491508092505b8080600101915050610403565b505090565b60008054600181600116156101000203166002900480601f0160208091040260200160405190810160405280929190818152602001828054600181600116156101000203166002900480156105035780601f106104d857610100808354040283529160200191610503565b820191906000526020600020905b8154815290600101906020018083116104e657829003601f168201915b505050505081565b60016020528060005260406000206000915090508060000160009054906101000a900460ff16908060000160019054906101000a900473ffffffffffffffffffffffffffffffffffffffff16908060010154905083565b6000600261056e6103f6565b8154811061057857fe5b906000526020600020906002020160000154905090565b828054600181600116156101000203166002900490600052602060002090601f016020900481019282601f106105d057805160ff19168380011785556105fe565b828001600101855582156105fe579182015b828111156105fd5782518255916020019190600101906105e2565b5b50905061060b919061060f565b5090565b61063191905b8082111561062d576000816000905550600101610615565b5090565b9056fea265627a7a723158207f62dd94dea9ca1a5a2a63eb136ebc7cf58fbbf260a124850cf4c9a4d55594bf64736f6c63430005100032",
  "source": "// jdougl\n\npragma solidity 0.5.16;\n\n/// @title Voting with delegation\n\ncontract ballot {\n    string public candidate;\n\t\n\t// This declares a structure holding variables\n\t// This will represent a single voter\n\tstruct Voter {\n\t\tbool voted; // has the user already voted?\n\t\taddress delegate; // address of user delegated to \n\t\tuint vote; // index of voted proposal\n\t}\n\n\t// represents a single proposal\n\tstruct Proposal {\n\t\tbytes32 name; // short name of proposal\n\t\tuint voteCount; // number of accumulated vote on proposal\n\t}\n\n\t// this declares a state variable that\n\t// stores a 'Voter' struct for possibel addresses\n\tmapping(address => Voter) public voters;\n\n\t// A dynamically-sized array of `Proposal` structs.\n    Proposal[] public proposals;\n\n\t/// Create a new ballot to choose one of `proposalNames`.\n    constructor(bytes32[] memory proposalNames) public {\n\n        // For each of the provided proposal names,\n        // create a new proposal object and add it\n        // to the end of the array.\n        for (uint i = 0; i < proposalNames.length; i++) {\n            // `Proposal({...})` creates a temporary\n            // Proposal object and `proposals.push(...)`\n            // appends it to the end of `proposals`.\n            proposals.push(Proposal({\n                name: proposalNames[i],\n                voteCount: 0\n            }));\n        }\n    }\n\n    \n    /// Give your vote (including votes delegated to you)\n    /// to proposal `proposals[proposal].name`.\n    function vote(uint proposal) public {\n        Voter storage sender = voters[msg.sender];\n        require(!sender.voted, \"Already voted.\");\n        sender.voted = true;\n        sender.vote = proposal;\n\n        // If `proposal` is out of the range of the array,\n        // this will throw automatically and revert all\n        // changes.\n        proposals[proposal].voteCount += 1;\n    }\n\n    /// @dev Computes the winning proposal taking all\n    /// previous votes into account.\n    function winningProposal() public view\n            returns (uint winningProposal_)\n    {\n        uint winningVoteCount = 0;\n        for (uint p = 0; p < proposals.length; p++) {\n            if (proposals[p].voteCount > winningVoteCount) {\n                winningVoteCount = proposals[p].voteCount;\n                winningProposal_ = p;\n            }\n        }\n    }\n\n    // Calls winningProposal() function to get the index\n    // of the winner contained in the proposals array and then\n    // returns the name of the winner\n    function winnerName() public view\n            returns (bytes32 winnerName_)\n    {\n        winnerName_ = proposals[winningProposal()].name;\n    }\n\n    // Constructor\n    function Election() public {\n        candidate = \"Candidate 1\";\n    }\n}\t\n",
  "sourcePath": "/home/jamie/Documents/decentralized_providence/contracts/voting-contract.sol",
  "compiler": {
    "name": "solc",
    "version": "0.5.16+commit.9c3226ce.Emscripten.clang"
  },
  "schemaVersion": "3.0.23",
  "updatedAt": "2020-03-05T19:33:41.985Z",
  "devdoc": {
    "methods": {
      "winningProposal()": {
        "details": "Computes the winning proposal taking all previous votes into account."
      }
    },
    "title": "Voting with delegation"
  },
  "userdoc": {
    "methods": {
      "constructor": "Create a new ballot to choose one of `proposalNames`.",
      "vote(uint256)": {
        "notice": "Give your vote (including votes delegated to you) to proposal `proposals[proposal].name`."
      }
    }
  }
}