{
  "contractName": "Election",
  "abi": [
    {
      "inputs": [],
      "payable": false,
      "stateMutability": "nonpayable",
      "type": "constructor"
    },
    {
      "constant": true,
      "inputs": [
        {
          "internalType": "uint256",
          "name": "",
          "type": "uint256"
        }
      ],
      "name": "proposals",
      "outputs": [
        {
          "internalType": "uint256",
          "name": "id",
          "type": "uint256"
        },
        {
          "internalType": "string",
          "name": "name",
          "type": "string"
        },
        {
          "internalType": "uint256",
          "name": "votesFor",
          "type": "uint256"
        },
        {
          "internalType": "uint256",
          "name": "votesAgainst",
          "type": "uint256"
        },
        {
          "internalType": "uint256",
          "name": "totalVotes",
          "type": "uint256"
        },
        {
          "internalType": "bool",
          "name": "passed",
          "type": "bool"
        }
      ],
      "payable": false,
      "stateMutability": "view",
      "type": "function"
    },
    {
      "constant": true,
      "inputs": [],
      "name": "proposalsCount",
      "outputs": [
        {
          "internalType": "uint256",
          "name": "",
          "type": "uint256"
        }
      ],
      "payable": false,
      "stateMutability": "view",
      "type": "function"
    },
    {
      "constant": true,
      "inputs": [
        {
          "internalType": "address",
          "name": "",
          "type": "address"
        }
      ],
      "name": "voters",
      "outputs": [
        {
          "internalType": "bool",
          "name": "",
          "type": "bool"
        }
      ],
      "payable": false,
      "stateMutability": "view",
      "type": "function"
    },
    {
      "constant": false,
      "inputs": [
        {
          "internalType": "uint256",
          "name": "_proposalId",
          "type": "uint256"
        }
      ],
      "name": "voteFor",
      "outputs": [],
      "payable": false,
      "stateMutability": "nonpayable",
      "type": "function"
    },
    {
      "constant": false,
      "inputs": [
        {
          "internalType": "uint256",
          "name": "_proposalId",
          "type": "uint256"
        }
      ],
      "name": "voteAgainst",
      "outputs": [],
      "payable": false,
      "stateMutability": "nonpayable",
      "type": "function"
    }
  ],
  "bytecode": "0x608060405234801561001057600080fd5b506100556040518060400160405280600a81526020017f50726f706f73616c20310000000000000000000000000000000000000000000081525061009e60201b60201c565b6100996040518060400160405280600a81526020017f50726f706f73616c20320000000000000000000000000000000000000000000081525061009e60201b60201c565b61020a565b6002600081548092919060010191905055506040518060c00160405280600254815260200182815260200160008152602001600081526020016000815260200160001515815250600160006002548152602001908152602001600020600082015181600001556020820151816001019080519060200190610120929190610165565b5060408201518160020155606082015181600301556080820151816004015560a08201518160050160006101000a81548160ff02191690831515021790555090505050565b828054600181600116156101000203166002900490600052602060002090601f016020900481019282601f106101a657805160ff19168380011785556101d4565b828001600101855582156101d4579182015b828111156101d35782518255916020019190600101906101b8565b5b5090506101e191906101e5565b5090565b61020791905b808211156102035760008160009055506001016101eb565b5090565b90565b61056a806102196000396000f3fe608060405234801561001057600080fd5b50600436106100575760003560e01c8063013cf08b1461005c5780630a9f46ad1461012a578063750e443a1461014857806386a5053514610176578063a3ec138d146101a4575b600080fd5b6100886004803603602081101561007257600080fd5b8101908080359060200190929190505050610200565b604051808781526020018060200186815260200185815260200184815260200183151515158152602001828103825287818151815260200191508051906020019080838360005b838110156100ea5780820151818401526020810190506100cf565b50505050905090810190601f1680156101175780820380516001836020036101000a031916815260200191505b5097505050505050505060405180910390f35b6101326102e1565b6040518082815260200191505060405180910390f35b6101746004803603602081101561015e57600080fd5b81019080803590602001909291905050506102e7565b005b6101a26004803603602081101561018c57600080fd5b81019080803590602001909291905050506103fe565b005b6101e6600480360360208110156101ba57600080fd5b81019080803573ffffffffffffffffffffffffffffffffffffffff169060200190929190505050610515565b604051808215151515815260200191505060405180910390f35b6001602052806000526040600020600091509050806000015490806001018054600181600116156101000203166002900480601f0160208091040260200160405190810160405280929190818152602001828054600181600116156101000203166002900480156102b25780601f10610287576101008083540402835291602001916102b2565b820191906000526020600020905b81548152906001019060200180831161029557829003601f168201915b5050505050908060020154908060030154908060040154908060050160009054906101000a900460ff16905086565b60025481565b6000803373ffffffffffffffffffffffffffffffffffffffff1673ffffffffffffffffffffffffffffffffffffffff16815260200190815260200160002060009054906101000a900460ff161561033d57600080fd5b60008111801561034f57506002548111155b61035857600080fd5b60016000803373ffffffffffffffffffffffffffffffffffffffff1673ffffffffffffffffffffffffffffffffffffffff16815260200190815260200160002060006101000a81548160ff0219169083151502179055506001600082815260200190815260200160002060030160008154809291906001019190505550600160008281526020019081526020016000206004016000815480929190600101919050555050565b6000803373ffffffffffffffffffffffffffffffffffffffff1673ffffffffffffffffffffffffffffffffffffffff16815260200190815260200160002060009054906101000a900460ff161561045457600080fd5b60008111801561046657506002548111155b61046f57600080fd5b60016000803373ffffffffffffffffffffffffffffffffffffffff1673ffffffffffffffffffffffffffffffffffffffff16815260200190815260200160002060006101000a81548160ff0219169083151502179055506001600082815260200190815260200160002060020160008154809291906001019190505550600160008281526020019081526020016000206004016000815480929190600101919050555050565b60006020528060005260406000206000915054906101000a900460ff168156fea265627a7a723158201707e62912cf3c8155893db9bc41eeb7c5402b938bce861d9d139ed7a300c15864736f6c63430005100032",
  "source": "// jdougl\n\npragma solidity >=0.4.21 <0.7.0;\n\ncontract Election {\n    \n    // Model a Proposal\n    struct Proposal {\n        uint id;\n        string name;\n        uint votesFor;\n        uint votesAgainst;\n        uint totalVotes;\n\n        // true if proposal passed, false if it didn't\n        bool passed;\n    }\n\n    // Store accounts that have voted\n    mapping(address => bool) public voters;\n    \n    // Read/write proposals\n    mapping(uint => Proposal) public proposals;\n    \n    // Store Proposals Count\n    uint public proposalsCount;\n\n    constructor() public {\n        addProposal(\"Proposal 1\");\n        addProposal(\"Proposal 2\");\n    }\n\n    function addProposal (string memory _name) private {\n        proposalsCount ++;\n        proposals[proposalsCount] = Proposal(proposalsCount, _name, 0, 0, 0, false);\n    }\n\n    function voteFor (uint _proposalId) public {\n        \n        // require that they haven't voted before\n        require(!voters[msg.sender]);\n\n        // require a valid proposal\n        require(_proposalId > 0 && _proposalId <= proposalsCount);\n\n        // record that voter has voted\n        voters[msg.sender] = true;\n\n        // update proposals vote Count\n        proposals[_proposalId].votesFor ++;\n        proposals[_proposalId].totalVotes ++;\n    }\n\n    function voteAgainst (uint _proposalId) public {\n        \n        // require that they haven't voted before\n        require(!voters[msg.sender]);\n\n        // require a valid proposal\n        require(_proposalId > 0 && _proposalId <= proposalsCount);\n\n        // record that voter has voted\n        voters[msg.sender] = true;\n\n        // update proposals vote Count\n        proposals[_proposalId].votesAgainst ++;\n        proposals[_proposalId].totalVotes ++;\n    }\n}\n",
  "sourcePath": "/home/jamie/Documents/decentralized_providence/contracts/Election.sol",
  "compiler": {
    "name": "solc",
    "version": "0.5.16+commit.9c3226ce.Emscripten.clang"
  },
  "schemaVersion": "3.0.23",
  "updatedAt": "2020-03-06T16:36:24.336Z",
  "networkType": "ethereum",
  "devdoc": {
    "methods": {}
  },
  "userdoc": {
    "methods": {}
  }
}